{
  "_format": "hh-sol-artifact-1",
  "contractName": "VotePrediction",
  "sourceName": "contracts/VotePrediction.sol",
  "abi": [
    {
      "inputs": [
        {
          "internalType": "address",
          "name": "_finder",
          "type": "address"
        },
        {
          "internalType": "address",
          "name": "_currency",
          "type": "address"
        },
        {
          "internalType": "address",
          "name": "_optimisticOracleV3",
          "type": "address"
        }
      ],
      "stateMutability": "nonpayable",
      "type": "constructor"
    },
    {
      "anonymous": false,
      "inputs": [
        {
          "indexed": true,
          "internalType": "bytes32",
          "name": "marketId",
          "type": "bytes32"
        },
        {
          "indexed": false,
          "internalType": "string",
          "name": "assertedOutcome",
          "type": "string"
        },
        {
          "indexed": true,
          "internalType": "bytes32",
          "name": "assertionId",
          "type": "bytes32"
        }
      ],
      "name": "MarketAsserted",
      "type": "event"
    },
    {
      "anonymous": false,
      "inputs": [
        {
          "indexed": true,
          "internalType": "bytes32",
          "name": "marketId",
          "type": "bytes32"
        },
        {
          "indexed": false,
          "internalType": "bytes[]",
          "name": "candidateNames",
          "type": "bytes[]"
        },
        {
          "indexed": false,
          "internalType": "string",
          "name": "description",
          "type": "string"
        },
        {
          "indexed": false,
          "internalType": "address[]",
          "name": "candidateTokenAddresses",
          "type": "address[]"
        },
        {
          "indexed": false,
          "internalType": "uint256",
          "name": "reward",
          "type": "uint256"
        },
        {
          "indexed": false,
          "internalType": "uint256",
          "name": "requiredBond",
          "type": "uint256"
        }
      ],
      "name": "MarketInitialized",
      "type": "event"
    },
    {
      "anonymous": false,
      "inputs": [
        {
          "indexed": true,
          "internalType": "bytes32",
          "name": "marketId",
          "type": "bytes32"
        }
      ],
      "name": "MarketResolved",
      "type": "event"
    },
    {
      "anonymous": false,
      "inputs": [
        {
          "indexed": true,
          "internalType": "bytes32",
          "name": "marketId",
          "type": "bytes32"
        },
        {
          "indexed": true,
          "internalType": "address",
          "name": "account",
          "type": "address"
        },
        {
          "indexed": false,
          "internalType": "uint256",
          "name": "payout",
          "type": "uint256"
        },
        {
          "indexed": false,
          "internalType": "uint256",
          "name": "correctTokenBalance",
          "type": "uint256"
        }
      ],
      "name": "TokensSettled",
      "type": "event"
    },
    {
      "inputs": [
        {
          "internalType": "bytes32",
          "name": "marketId",
          "type": "bytes32"
        },
        {
          "internalType": "string",
          "name": "assertedOutcome",
          "type": "string"
        }
      ],
      "name": "assertMarket",
      "outputs": [
        {
          "internalType": "bytes32",
          "name": "assertionId",
          "type": "bytes32"
        }
      ],
      "stateMutability": "nonpayable",
      "type": "function"
    },
    {
      "inputs": [
        {
          "internalType": "bytes32",
          "name": "",
          "type": "bytes32"
        }
      ],
      "name": "assertedMarkets",
      "outputs": [
        {
          "internalType": "address",
          "name": "asserter",
          "type": "address"
        },
        {
          "internalType": "bytes32",
          "name": "marketId",
          "type": "bytes32"
        }
      ],
      "stateMutability": "view",
      "type": "function"
    },
    {
      "inputs": [
        {
          "internalType": "bytes32",
          "name": "assertionId",
          "type": "bytes32"
        }
      ],
      "name": "assertionDisputedCallback",
      "outputs": [],
      "stateMutability": "nonpayable",
      "type": "function"
    },
    {
      "inputs": [],
      "name": "assertionLiveness",
      "outputs": [
        {
          "internalType": "uint64",
          "name": "",
          "type": "uint64"
        }
      ],
      "stateMutability": "view",
      "type": "function"
    },
    {
      "inputs": [
        {
          "internalType": "bytes32",
          "name": "assertionId",
          "type": "bytes32"
        },
        {
          "internalType": "bool",
          "name": "assertedTruthfully",
          "type": "bool"
        }
      ],
      "name": "assertionResolvedCallback",
      "outputs": [],
      "stateMutability": "nonpayable",
      "type": "function"
    },
    {
      "inputs": [],
      "name": "currency",
      "outputs": [
        {
          "internalType": "contract IERC20",
          "name": "",
          "type": "address"
        }
      ],
      "stateMutability": "view",
      "type": "function"
    },
    {
      "inputs": [],
      "name": "defaultIdentifier",
      "outputs": [
        {
          "internalType": "bytes32",
          "name": "",
          "type": "bytes32"
        }
      ],
      "stateMutability": "view",
      "type": "function"
    },
    {
      "inputs": [],
      "name": "finder",
      "outputs": [
        {
          "internalType": "contract FinderInterface",
          "name": "",
          "type": "address"
        }
      ],
      "stateMutability": "view",
      "type": "function"
    },
    {
      "inputs": [
        {
          "internalType": "bytes32",
          "name": "marketId",
          "type": "bytes32"
        }
      ],
      "name": "getMarket",
      "outputs": [
        {
          "components": [
            {
              "internalType": "bool",
              "name": "resolved",
              "type": "bool"
            },
            {
              "internalType": "uint256",
              "name": "assertedOutcomeIndex",
              "type": "uint256"
            },
            {
              "internalType": "contract ExpandedERC20[]",
              "name": "candidateTokens",
              "type": "address[]"
            },
            {
              "internalType": "uint256",
              "name": "reward",
              "type": "uint256"
            },
            {
              "internalType": "uint256",
              "name": "requiredBond",
              "type": "uint256"
            },
            {
              "internalType": "bytes[]",
              "name": "candidateNames",
              "type": "bytes[]"
            },
            {
              "internalType": "bytes",
              "name": "description",
              "type": "bytes"
            }
          ],
          "internalType": "struct VotePrediction.Market",
          "name": "",
          "type": "tuple"
        }
      ],
      "stateMutability": "view",
      "type": "function"
    },
    {
      "inputs": [
        {
          "internalType": "string[]",
          "name": "outcomes",
          "type": "string[]"
        },
        {
          "internalType": "string",
          "name": "description",
          "type": "string"
        },
        {
          "internalType": "uint256",
          "name": "reward",
          "type": "uint256"
        },
        {
          "internalType": "uint256",
          "name": "requiredBond",
          "type": "uint256"
        }
      ],
      "name": "initializeMarket",
      "outputs": [
        {
          "internalType": "bytes32",
          "name": "marketId",
          "type": "bytes32"
        }
      ],
      "stateMutability": "nonpayable",
      "type": "function"
    },
    {
      "inputs": [
        {
          "internalType": "bytes32",
          "name": "",
          "type": "bytes32"
        }
      ],
      "name": "markets",
      "outputs": [
        {
          "internalType": "bool",
          "name": "resolved",
          "type": "bool"
        },
        {
          "internalType": "uint256",
          "name": "assertedOutcomeIndex",
          "type": "uint256"
        },
        {
          "internalType": "uint256",
          "name": "reward",
          "type": "uint256"
        },
        {
          "internalType": "uint256",
          "name": "requiredBond",
          "type": "uint256"
        },
        {
          "internalType": "bytes",
          "name": "description",
          "type": "bytes"
        }
      ],
      "stateMutability": "view",
      "type": "function"
    },
    {
      "inputs": [],
      "name": "oo",
      "outputs": [
        {
          "internalType": "contract OptimisticOracleV3Interface",
          "name": "",
          "type": "address"
        }
      ],
      "stateMutability": "view",
      "type": "function"
    },
    {
      "inputs": [
        {
          "internalType": "bytes32",
          "name": "marketId",
          "type": "bytes32"
        },
        {
          "internalType": "uint256",
          "name": "candidateIndex",
          "type": "uint256"
        },
        {
          "internalType": "uint256",
          "name": "amount",
          "type": "uint256"
        }
      ],
      "name": "purchaseCandidateToken",
      "outputs": [],
      "stateMutability": "nonpayable",
      "type": "function"
    },
    {
      "inputs": [
        {
          "internalType": "bytes32",
          "name": "marketId",
          "type": "bytes32"
        }
      ],
      "name": "settleOutcomeTokens",
      "outputs": [
        {
          "internalType": "uint256",
          "name": "payout",
          "type": "uint256"
        }
      ],
      "stateMutability": "nonpayable",
      "type": "function"
    },
    {
      "inputs": [],
      "name": "unresolvable",
      "outputs": [
        {
          "internalType": "bytes",
          "name": "",
          "type": "bytes"
        }
      ],
      "stateMutability": "view",
      "type": "function"
    }
  ],
  "bytecode": "0x6101006040523480156200001257600080fd5b506040516200471338038062004713833981016040819052620000359162000242565b6001600160a01b0383166080526200004c62000190565b604051631d1d5b3960e11b81526001600160a01b0384811660048301529190911690633a3ab67290602401602060405180830381865afa15801562000095573d6000803e3d6000fd5b505050506040513d601f19601f82011682018060405250810190620000bb91906200028c565b6200010c5760405162461bcd60e51b815260206004820152601460248201527f556e737570706f727465642063757272656e6379000000000000000000000000604482015260640160405180910390fd5b6001600160a01b0380831660a052811660c08190526040805163d509b01760e01b8152905163d509b017916004808201926020929091908290030181865afa1580156200015d573d6000803e3d6000fd5b505050506040513d601f19601f82011682018060405250810190620001839190620002b7565b60e05250620002ef915050565b6080516040516302abf57960e61b81527f436f6c6c61746572616c57686974656c6973740000000000000000000000000060048201526000916001600160a01b03169063aafd5e4090602401602060405180830381865afa158015620001fa573d6000803e3d6000fd5b505050506040513d601f19601f82011682018060405250810190620002209190620002d1565b905090565b80516001600160a01b03811681146200023d57600080fd5b919050565b6000806000606084860312156200025857600080fd5b620002638462000225565b9250620002736020850162000225565b9150620002836040850162000225565b90509250925092565b6000602082840312156200029f57600080fd5b81518015158114620002b057600080fd5b9392505050565b600060208284031215620002ca57600080fd5b5051919050565b600060208284031215620002e457600080fd5b620002b08262000225565b60805160a05160c05160e05161438f620003846000396000818161030c01526118bb0152600081816101d8015281816106fd015281816108970152818161151d015261185d0152600081816103340152818161040b015281816106d20152818161083e0152818161087501528181610e9c01528181611241015281816115d9015261189701526000610254015261438f6000f3fe60806040523480156200001157600080fd5b5060043610620001095760003560e01c8063b75d4e2411620000a3578063d448a4ec116200006e578063d448a4ec14620002f2578063d509b0171462000306578063e5a6b10f146200032e578063f1b156b2146200035657600080fd5b8063b75d4e24146200022a578063b9a3c84c146200024e578063c3c95c7b1462000276578063d4107645146200029c57600080fd5b806360ba87a011620000e457806360ba87a014620001915780637564912b14620001a85780638921a61414620001d2578063acd98e29146200021357600080fd5b80630880c65a146200010e57806319e63afe1462000152578063565429a8146200016b575b600080fd5b6200013a6040518060400160405280600c81526020016b556e7265736f6c7661626c6560a01b81525081565b60405162000149919062001ec8565b60405180910390f35b620001696200016336600462001edd565b6200036d565b005b620001826200017c36600462001fcb565b620004d6565b60405190815260200162000149565b62000182620001a236600462002016565b62000957565b620001bf620001b93660046200211d565b62000f13565b6040516200014995949392919062002137565b620001fa7f000000000000000000000000000000000000000000000000000000000000000081565b6040516001600160a01b03909116815260200162000149565b62000182620002243660046200211d565b62000fd8565b62000234611c2081565b60405167ffffffffffffffff909116815260200162000149565b620001fa7f000000000000000000000000000000000000000000000000000000000000000081565b6200028d620002873660046200211d565b620012ad565b604051620001499190620021bf565b620002d2620002ad3660046200211d565b600160208190526000918252604090912080549101546001600160a01b039091169082565b604080516001600160a01b03909316835260208301919091520162000149565b62000169620003033660046200211d565b50565b620001827f000000000000000000000000000000000000000000000000000000000000000081565b620001fa7f000000000000000000000000000000000000000000000000000000000000000081565b620001696200036736600462002299565b62001512565b600083815260208190526040902060028101548310620003d45760405162461bcd60e51b815260206004820152601760248201527f496e76616c69642063616e64696461746520696e64657800000000000000000060448201526064015b60405180910390fd5b620f42406000670de0b6b3a7640000620003ef8584620022e2565b620003fb9190620022fc565b9050620004346001600160a01b037f00000000000000000000000000000000000000000000000000000000000000001633308462001673565b8260020185815481106200044c576200044c6200231f565b6000918252602090912001546040516340c10f1960e01b8152336004820152602481018690526001600160a01b03909116906340c10f19906044016020604051808303816000875af1158015620004a7573d6000803e3d6000fd5b505050506040513d601f19601f82011682018060405250810190620004cd919062002335565b50505050505050565b600082815260208190526040812060028101546200052f5760405162461bcd60e51b815260206004820152601560248201527413585c9ad95d08191bd95cc81b9bdd08195e1a5cdd605a1b6044820152606401620003cb565b825160208401206000600019815b6005850154811015620005ac57838560050182815481106200056357620005636200231f565b906000526020600020016040516200057c919062002391565b604051809103902003620005975760019250809150620005ac565b80620005a3816200240f565b9150506200053d565b5081158015620005ff575060408051808201909152600c81526b556e7265736f6c7661626c6560a01b6020909101527fffa5c42fda42ac0bea9ca62d68dcc08a4b371f06b6e71afb99dee2ce276cbe4e83145b156200060e5750600190506000195b816200065d5760405162461bcd60e51b815260206004820152601860248201527f496e76616c6964206173736572746564206f7574636f6d6500000000000000006044820152606401620003cb565b600019846001015414620006b45760405162461bcd60e51b815260206004820152601c60248201527f417373657274696f6e20616374697665206f72207265736f6c766564000000006044820152606401620003cb565b60018401819055604051634360af3d60e01b81526001600160a01b037f0000000000000000000000000000000000000000000000000000000000000000811660048301526000917f000000000000000000000000000000000000000000000000000000000000000090911690634360af3d90602401602060405180830381865afa15801562000747573d6000803e3d6000fd5b505050506040513d601f19601f820116820180604052508101906200076d91906200242b565b90506000818660040154116200078457816200078a565b85600401545b905060006200082e89886006018054620007a49062002355565b80601f0160208091040260200160405190810160405280929190818152602001828054620007d29062002355565b8015620008235780601f10620007f75761010080835404028352916020019162000823565b820191906000526020600020905b8154815290600101906020018083116200080557829003601f168201915b5050505050620016e6565b9050620008676001600160a01b037f00000000000000000000000000000000000000000000000000000000000000001633308562001673565b620008bd6001600160a01b037f0000000000000000000000000000000000000000000000000000000000000000167f00000000000000000000000000000000000000000000000000000000000000008462001721565b620008c9818362001843565b60408051808201825233815260208082018e81526000858152600192839052849020925183546001600160a01b0319166001600160a01b03909116178355519101555190985088908b907fc55c01025649b2056980da18d75125fed301d8a2f7cf93d2151fab07bfe2a4929062000942908d9062001ec8565b60405180910390a35050505050505092915050565b6000600285511015620009ad5760405162461bcd60e51b815260206004820181905260248201527f4174206c656173742074776f2063616e646964617465732072657175697265646044820152606401620003cb565b6000845111620009f45760405162461bcd60e51b815260206004820152601160248201527022b6b83a3c903232b9b1b934b83a34b7b760791b6044820152606401620003cb565b438460405160200162000a0992919062002445565b60408051601f1981840301815291815281516020928301206000818152928390529120600201549091501562000a7a5760405162461bcd60e51b81526020600482015260156024820152744d61726b657420616c72656164792065786973747360581b6044820152606401620003cb565b845160008167ffffffffffffffff81111562000a9a5762000a9a62001f0a565b60405190808252806020026020018201604052801562000ac4578160200160208202803683370190505b50905060008267ffffffffffffffff81111562000ae55762000ae562001f0a565b60405190808252806020026020018201604052801562000b1a57816020015b606081526020019060019003908162000b045790505b50905060008367ffffffffffffffff81111562000b3b5762000b3b62001f0a565b60405190808252806020026020018201604052801562000b65578160200160208202803683370190505b50905060005b8481101562000dc55760008a828151811062000b8b5762000b8b6200231f565b6020026020010151511162000bda5760405162461bcd60e51b8152602060048201526014602482015273456d7074792063616e646964617465206e616d6560601b6044820152606401620003cb565b89818151811062000bef5762000bef6200231f565b602002602001015183828151811062000c0c5762000c0c6200231f565b602002602001018190525060008a828151811062000c2e5762000c2e6200231f565b602002602001015160405160200162000c48919062002460565b604051602081830303815290604052601260405162000c679062001d2c565b62000c749291906200248c565b604051809103906000f08015801562000c91573d6000803e3d6000fd5b50604051634c1d96ab60e11b81523060048201529091506001600160a01b0382169063983b2d5690602401600060405180830381600087803b15801562000cd757600080fd5b505af115801562000cec573d6000803e3d6000fd5b5050604051637a231bdd60e11b81523060048201526001600160a01b038416925063f44637ba9150602401600060405180830381600087803b15801562000d3257600080fd5b505af115801562000d47573d6000803e3d6000fd5b505050508085838151811062000d615762000d616200231f565b60200260200101906001600160a01b031690816001600160a01b0316815250508083838151811062000d975762000d976200231f565b6001600160a01b0390921660209283029190910190910152508062000dbc816200240f565b91505062000b6b565b506040805160e08101825260008082526000196020808401918252838501888152606085018d9052608085018c905260a0850188905260c085018e90528a8452838252949092208351815460ff1916901515178155905160018201559251805192939262000e3a926002850192019062001d3a565b50606082015160038201556080820151600482015560a0820151805162000e6c91600584019160209091019062001da4565b5060c0820151600682019062000e83908262002523565b50508715905062000ec55762000ec56001600160a01b037f00000000000000000000000000000000000000000000000000000000000000001633308a62001673565b847f0ec108de14219947bbc09f7af13081d8b4bb644dc848ca04f7c6c95915bc4688838a848b8b60405162000eff959493929190620025f0565b60405180910390a250505050949350505050565b6000602081905290815260409020805460018201546003830154600484015460068501805460ff9095169593949293919262000f4f9062002355565b80601f016020809104026020016040519081016040528092919081815260200182805462000f7d9062002355565b801562000fce5780601f1062000fa25761010080835404028352916020019162000fce565b820191906000526020600020905b81548152906001019060200180831162000fb057829003601f168201915b5050505050905085565b6000818152602081905260408120805460ff166200102f5760405162461bcd60e51b815260206004820152601360248201527213585c9ad95d081b9bdd081c995cdbdb1d9959606a1b6044820152606401620003cb565b600281015460018201546000911115620010da57816002018260010154815481106200105f576200105f6200231f565b6000918252602090912001546040516370a0823160e01b81523360048201526001600160a01b03909116906370a0823190602401602060405180830381865afa158015620010b1573d6000803e3d6000fd5b505050506040513d601f19601f82011682018060405250810190620010d791906200242b565b90505b60005b60028301548110156200122f5760008360020182815481106200110457620011046200231f565b6000918252602090912001546040516370a0823160e01b81523360048201526001600160a01b03909116906370a0823190602401602060405180830381865afa15801562001156573d6000803e3d6000fd5b505050506040513d601f19601f820116820180604052508101906200117c91906200242b565b90508360020182815481106200119657620011966200231f565b60009182526020909120015460405163079cc67960e41b8152336004820152602481018390526001600160a01b03909116906379cc6790906044016020604051808303816000875af1158015620011f1573d6000803e3d6000fd5b505050506040513d601f19601f8201168201806040525081019062001217919062002335565b5050808062001226906200240f565b915050620010dd565b50915081620012696001600160a01b037f000000000000000000000000000000000000000000000000000000000000000016338362001933565b6040805184815260208101839052339186917fb72d56b4027ae23e800f2b40aee40b2e4e587b55ec65f140dbeb248add5097b3910160405180910390a35050919050565b620012f06040518060e001604052806000151581526020016000815260200160608152602001600081526020016000815260200160608152602001606081525090565b60008281526020818152604091829020825160e081018452815460ff1615158152600182015481840152600282018054855181860281018601875281815292959394938601938301828280156200137157602002820191906000526020600020905b81546001600160a01b0316815260019091019060200180831162001352575b50505050508152602001600382015481526020016004820154815260200160058201805480602002602001604051908101604052809291908181526020016000905b8282101562001469578382906000526020600020018054620013d59062002355565b80601f0160208091040260200160405190810160405280929190818152602001828054620014039062002355565b8015620014545780601f10620014285761010080835404028352916020019162001454565b820191906000526020600020905b8154815290600101906020018083116200143657829003601f168201915b505050505081526020019060010190620013b3565b505050508152602001600682018054620014839062002355565b80601f0160208091040260200160405190810160405280929190818152602001828054620014b19062002355565b8015620015025780601f10620014d65761010080835404028352916020019162001502565b820191906000526020600020905b815481529060010190602001808311620014e457829003601f168201915b5050505050815250509050919050565b336001600160a01b037f000000000000000000000000000000000000000000000000000000000000000016146200157d5760405162461bcd60e51b815260206004820152600e60248201526d139bdd08185d5d1a1bdc9a5e995960921b6044820152606401620003cb565b6000828152600160208181526040808420909201548352829052902081156200164657805460ff191660011781556003810154156200160457600083815260016020526040902054600382015462001604916001600160a01b037f000000000000000000000000000000000000000000000000000000000000000081169291169062001933565b600083815260016020819052604080832090910154905190917fe9146184308c5e4b8f243047cc6f81dce88e004d7980502e123b02f887ab514491a26200164f565b60001960018201555b50506000908152600160208190526040822080546001600160a01b03191681550155565b6040516001600160a01b0380851660248301528316604482015260648101829052620016e09085906323b872dd60e01b906084015b60408051601f198184030181529190526020810180516001600160e01b03166001600160e01b03199093169290921790915262001965565b50505050565b6060620016f34262001a41565b8383604051602001620017099392919062002672565b60405160208183030381529060405290505b92915050565b8015806200179f5750604051636eb1769f60e11b81523060048201526001600160a01b03838116602483015284169063dd62ed3e90604401602060405180830381865afa15801562001777573d6000803e3d6000fd5b505050506040513d601f19601f820116820180604052508101906200179d91906200242b565b155b6200180c5760405162461bcd60e51b815260206004820152603660248201527f5361666545524332303a20617070726f76652066726f6d206e6f6e2d7a65726f60448201527520746f206e6f6e2d7a65726f20616c6c6f77616e636560501b6064820152608401620003cb565b6040516001600160a01b0383166024820152604481018290526200183e90849063095ea7b360e01b90606401620016a8565b505050565b604051636457c97960e01b81526000906001600160a01b037f00000000000000000000000000000000000000000000000000000000000000001690636457c97990620018e6908690339030908790611c20907f0000000000000000000000000000000000000000000000000000000000000000908b907f00000000000000000000000000000000000000000000000000000000000000009085906004016200274f565b6020604051808303816000875af115801562001906573d6000803e3d6000fd5b505050506040513d601f19601f820116820180604052508101906200192c91906200242b565b9392505050565b6040516001600160a01b0383166024820152604481018290526200183e90849063a9059cbb60e01b90606401620016a8565b6000620019bc826040518060400160405280602081526020017f5361666545524332303a206c6f772d6c6576656c2063616c6c206661696c6564815250856001600160a01b031662001b899092919063ffffffff16565b9050805160001480620019e0575080806020019051810190620019e0919062002335565b6200183e5760405162461bcd60e51b815260206004820152602a60248201527f5361666545524332303a204552433230206f7065726174696f6e20646964206e6044820152691bdd081cdd58d8d9595960b21b6064820152608401620003cb565b60608160000362001a695750506040805180820190915260018152600360fc1b602082015290565b8160005b811562001a99578062001a80816200240f565b915062001a919050600a83620022fc565b915062001a6d565b60008167ffffffffffffffff81111562001ab75762001ab762001f0a565b6040519080825280601f01601f19166020018201604052801562001ae2576020820181803683370190505b509050815b851562001b805762001afb600182620027bf565b9050600062001b0c600a88620022fc565b62001b1990600a620022e2565b62001b259088620027bf565b62001b32906030620027d5565b905060008160f81b90508084848151811062001b525762001b526200231f565b60200101906001600160f81b031916908160001a90535062001b76600a89620022fc565b9750505062001ae7565b50949350505050565b606062001b9a848460008562001ba2565b949350505050565b60608247101562001c055760405162461bcd60e51b815260206004820152602660248201527f416464726573733a20696e73756666696369656e742062616c616e636520666f6044820152651c8818d85b1b60d21b6064820152608401620003cb565b600080866001600160a01b0316858760405162001c239190620027f1565b60006040518083038185875af1925050503d806000811462001c62576040519150601f19603f3d011682016040523d82523d6000602084013e62001c67565b606091505b509150915062001c7a8783838762001c85565b979650505050505050565b6060831562001cf957825160000362001cf1576001600160a01b0385163b62001cf15760405162461bcd60e51b815260206004820152601d60248201527f416464726573733a2063616c6c20746f206e6f6e2d636f6e74726163740000006044820152606401620003cb565b508162001b9a565b62001b9a838381511562001d105781518083602001fd5b8060405162461bcd60e51b8152600401620003cb919062001ec8565b611b4a806200281083390190565b82805482825590600052602060002090810192821562001d92579160200282015b8281111562001d9257825182546001600160a01b0319166001600160a01b0390911617825560209092019160019091019062001d5b565b5062001da092915062001dfd565b5090565b82805482825590600052602060002090810192821562001def579160200282015b8281111562001def578251829062001dde908262002523565b509160200191906001019062001dc5565b5062001da092915062001e14565b5b8082111562001da0576000815560010162001dfe565b8082111562001da057600062001e2b828262001e35565b5060010162001e14565b50805462001e439062002355565b6000825580601f1062001e54575050565b601f01602090049060005260206000209081019062000303919062001dfd565b60005b8381101562001e9157818101518382015260200162001e77565b50506000910152565b6000815180845262001eb481602086016020860162001e74565b601f01601f19169290920160200192915050565b6020815260006200192c602083018462001e9a565b60008060006060848603121562001ef357600080fd5b505081359360208301359350604090920135919050565b634e487b7160e01b600052604160045260246000fd5b604051601f8201601f1916810167ffffffffffffffff8111828210171562001f4c5762001f4c62001f0a565b604052919050565b600082601f83011262001f6657600080fd5b813567ffffffffffffffff81111562001f835762001f8362001f0a565b62001f98601f8201601f191660200162001f20565b81815284602083860101111562001fae57600080fd5b816020850160208301376000918101602001919091529392505050565b6000806040838503121562001fdf57600080fd5b82359150602083013567ffffffffffffffff81111562001ffe57600080fd5b6200200c8582860162001f54565b9150509250929050565b600080600080608085870312156200202d57600080fd5b843567ffffffffffffffff808211156200204657600080fd5b818701915087601f8301126200205b57600080fd5b813560208282111562002072576200207262001f0a565b8160051b6200208382820162001f20565b928352848101820192828101908c8511156200209e57600080fd5b83870192505b84831015620020df57823586811115620020be5760008081fd5b620020ce8e86838b010162001f54565b8352509183019190830190620020a4565b9950505088013592505080821115620020f757600080fd5b50620021068782880162001f54565b949794965050505060408301359260600135919050565b6000602082840312156200213057600080fd5b5035919050565b851515815284602082015283604082015282606082015260a06080820152600062001c7a60a083018462001e9a565b600081518084526020808501808196508360051b8101915082860160005b85811015620021b25782840389526200219f84835162001e9a565b9885019893509084019060010162002184565b5091979650505050505050565b6000602080835261010083018451151582850152818501516040850152604085015160e06060860152818151808452610120870191508483019350600092505b808310156200222a5783516001600160a01b03168252928401926001929092019190840190620021ff565b5060608701516080870152608087015160a087015260a08701519350601f199250828682030160c087015262002261818562002166565b9350505060c0850151818584030160e086015262002280838262001e9a565b9695505050505050565b80151581146200030357600080fd5b60008060408385031215620022ad57600080fd5b823591506020830135620022c1816200228a565b809150509250929050565b634e487b7160e01b600052601160045260246000fd5b80820281158282048414176200171b576200171b620022cc565b6000826200231a57634e487b7160e01b600052601260045260246000fd5b500490565b634e487b7160e01b600052603260045260246000fd5b6000602082840312156200234857600080fd5b81516200192c816200228a565b600181811c908216806200236a57607f821691505b6020821081036200238b57634e487b7160e01b600052602260045260246000fd5b50919050565b6000808354620023a18162002355565b60018281168015620023bc5760018114620023d25762002403565b60ff198416875282151583028701945062002403565b8760005260208060002060005b85811015620023fa5781548a820152908401908201620023df565b50505082870194505b50929695505050505050565b600060018201620024245762002424620022cc565b5060010190565b6000602082840312156200243e57600080fd5b5051919050565b82815260406020820152600062001b9a604083018462001e9a565b600082516200247481846020870162001e74565b65102a37b5b2b760d11b920191825250600601919050565b606081526000620024a1606083018562001e9a565b8281036020840152600481526321aa25a760e11b60208201526040810191505060ff831660408301529392505050565b601f8211156200183e57600081815260208120601f850160051c81016020861015620024fa5750805b601f850160051c820191505b818110156200251b5782815560010162002506565b505050505050565b815167ffffffffffffffff81111562002540576200254062001f0a565b620025588162002551845462002355565b84620024d1565b602080601f831160018114620025905760008415620025775750858301515b600019600386901b1c1916600185901b1785556200251b565b600085815260208120601f198616915b82811015620025c157888601518255948401946001909101908401620025a0565b5085821015620025e05787850151600019600388901b60f8161c191681555b5050505050600190811b01905550565b60a0815260006200260560a083018862002166565b6020838203818501526200261a828962001e9a565b8481036040860152875180825282890193509082019060005b818110156200265a5784516001600160a01b03168352938301939183019160010162002633565b50506060850196909652505050608001529392505050565b7f4173206f6620617373657274696f6e2074696d657374616d7020000000000000815260008451620026ac81601a85016020890162001e74565b7f2c20746865206465736372696265642070726564696374696f6e206d61726b65601a918401918201526d03a1037baba31b7b6b29034b99d160951b603a82015284516200270281604884016020890162001e74565b7f2e20546865206d61726b6574206465736372697074696f6e2069733a200000006048929091019182015283516200274281606584016020880162001e74565b0160650195945050505050565b6000610120808352620027658184018d62001e9a565b6001600160a01b039b8c166020850152998b1660408401525050958816606087015267ffffffffffffffff9490941660808601529190951660a084015260c083019490945260e08201939093526101000191909152919050565b818103818111156200171b576200171b620022cc565b60ff81811683821601908111156200171b576200171b620022cc565b600082516200280581846020870162001e74565b919091019291505056fe60806040523480156200001157600080fd5b5060405162001b4a38038062001b4a833981016040819052620000349162000545565b8282600362000044838262000658565b50600462000053828262000658565b50506006805460ff191660ff8416179055506200007360008033620000a5565b6200009060015b60408051600080825260208201909252620001e7565b6200009c60026200007a565b50505062000778565b826000808281526005602052604090206001015460ff166002811115620000d057620000d062000724565b14620001235760405162461bcd60e51b815260206004820152601e60248201527f43616e6e6f74207573652061207072652d6578697374696e6720726f6c65000060448201526064015b60405180910390fd5b60008481526005602052604090206001808201805460ff191690911790558381556200015360028201846200031d565b60008481526005602052604081206001015460ff1660028111156200017c576200017c62000724565b03620001e05760405162461bcd60e51b815260206004820152603c602482015260008051602062001b2a83398151915260448201527f20746f206d616e61676520616e206578636c757369766520726f6c650000000060648201526084016200011a565b5050505050565b826000808281526005602052604090206001015460ff16600281111562000212576200021262000724565b14620002615760405162461bcd60e51b815260206004820152601e60248201527f43616e6e6f74207573652061207072652d6578697374696e6720726f6c65000060448201526064016200011a565b600084815260056020526040902060018101805460ff191660021790558381556200029060038201846200032d565b60008481526005602052604081206001015460ff166002811115620002b957620002b962000724565b03620001e05760405162461bcd60e51b8152602060048201526038602482015260008051602062001b2a83398151915260448201527f20746f206d616e61676520612073686172656420726f6c65000000000000000060648201526084016200011a565b62000329828262000382565b5050565b60005b81518110156200037d5762000368838383815181106200035457620003546200073a565b60200260200101516200040360201b60201c565b80620003748162000750565b91505062000330565b505050565b6001600160a01b038116620003e65760405162461bcd60e51b815260206004820152602360248201527f43616e6e6f742073657420616e206578636c757369766520726f6c6520746f2060448201526203078360ec1b60648201526084016200011a565b81546001600160a01b0319166001600160a01b0391909116179055565b6001600160a01b0381166200045b5760405162461bcd60e51b815260206004820152601f60248201527f43616e6e6f74206164642030783020746f20612073686172656420726f6c650060448201526064016200011a565b6001600160a01b0316600090815260209190915260409020805460ff19166001179055565b634e487b7160e01b600052604160045260246000fd5b600082601f830112620004a857600080fd5b81516001600160401b0380821115620004c557620004c562000480565b604051601f8301601f19908116603f01168101908282118183101715620004f057620004f062000480565b816040528381526020925086838588010111156200050d57600080fd5b600091505b8382101562000531578582018301518183018401529082019062000512565b600093810190920192909252949350505050565b6000806000606084860312156200055b57600080fd5b83516001600160401b03808211156200057357600080fd5b620005818783880162000496565b945060208601519150808211156200059857600080fd5b50620005a78682870162000496565b925050604084015160ff81168114620005bf57600080fd5b809150509250925092565b600181811c90821680620005df57607f821691505b6020821081036200060057634e487b7160e01b600052602260045260246000fd5b50919050565b601f8211156200037d57600081815260208120601f850160051c810160208610156200062f5750805b601f850160051c820191505b8181101562000650578281556001016200063b565b505050505050565b81516001600160401b0381111562000674576200067462000480565b6200068c81620006858454620005ca565b8462000606565b602080601f831160018114620006c45760008415620006ab5750858301515b600019600386901b1c1916600185901b17855562000650565b600085815260208120601f198616915b82811015620006f557888601518255948401946001909101908401620006d4565b5085821015620007145787850151600019600388901b60f8161c191681555b5050505050600190811b01905550565b634e487b7160e01b600052602160045260246000fd5b634e487b7160e01b600052603260045260246000fd5b6000600182016200077157634e487b7160e01b600052601160045260246000fd5b5060010190565b6113a280620007886000396000f3fe608060405234801561001057600080fd5b506004361061014d5760003560e01c806374d0a676116100c3578063a9059cbb1161007c578063a9059cbb146102be578063aaa14ca3146102d1578063ab3545e5146102e4578063d97c05be1461030f578063dd62ed3e14610322578063f44637ba1461033557600080fd5b806374d0a6761461025757806379cc67901461026a5780637cdc1cb91461027d57806395d89b4114610290578063983b2d5614610298578063a457c2d7146102ab57600080fd5b8063395093511161011557806339509351146101cd57806340c10f19146101e057806342966c68146101f35780636be7658b1461020857806370a082311461021b57806373cc802a1461024457600080fd5b806306fdde0314610152578063095ea7b31461017057806318160ddd1461019357806323b872dd146101a5578063313ce567146101b8575b600080fd5b61015a610348565b604051610167919061107f565b60405180910390f35b61018361017e3660046110e9565b6103da565b6040519015158152602001610167565b6002545b604051908152602001610167565b6101836101b3366004611113565b6103f4565b60065460405160ff9091168152602001610167565b6101836101db3660046110e9565b610418565b6101836101ee3660046110e9565b61043a565b61020661020136600461114f565b610477565b005b610206610216366004611168565b6104ad565b610197610229366004611194565b6001600160a01b031660009081526020819052604090205490565b610206610252366004611194565b610583565b610206610265366004611168565b610591565b6101836102783660046110e9565b610667565b61018361028b366004611168565b61069b565b61015a610760565b6102066102a6366004611194565b61076f565b6101836102b93660046110e9565b61077b565b6101836102cc3660046110e9565b6107f6565b6102066102df36600461114f565b610804565b6102f76102f236600461114f565b6108c0565b6040516001600160a01b039091168152602001610167565b61020661031d366004611168565b61092c565b6101976103303660046111b6565b610a02565b610206610343366004611194565b610a2d565b606060038054610357906111e0565b80601f0160208091040260200160405190810160405280929190818152602001828054610383906111e0565b80156103d05780601f106103a5576101008083540402835291602001916103d0565b820191906000526020600020905b8154815290600101906020018083116103b357829003601f168201915b5050505050905090565b6000336103e8818585610a37565b60019150505b92915050565b600033610402858285610b5c565b61040d858585610bd6565b506001949350505050565b6000336103e881858561042b8383610a02565b6104359190611214565b610a37565b60006001610448813361069b565b61046d5760405162461bcd60e51b81526004016104649061124b565b60405180910390fd5b6103e88484610d7a565b6002610483813361069b565b61049f5760405162461bcd60e51b81526004016104649061124b565b6104a93383610e39565b5050565b81600260008281526005602052604090206001015460ff1660028111156104d6576104d6611235565b146104f35760405162461bcd60e51b81526004016104649061128d565b600083815260056020526040902054839061050e903361069b565b61052a5760405162461bcd60e51b8152600401610464906112d9565b60008481526005602052604090206105459060030184610f63565b60405133906001600160a01b0385169086907feb3e33034c392e69263b04ec0fa376dc12784a41b6676c7f31b936cbc0fbb5af90600090a450505050565b61058e60008261092c565b50565b81600260008281526005602052604090206001015460ff1660028111156105ba576105ba611235565b146105d75760405162461bcd60e51b81526004016104649061128d565b60008381526005602052604090205483906105f2903361069b565b61060e5760405162461bcd60e51b8152600401610464906112d9565b60008481526005602052604090206106299060030184610f85565b60405133906001600160a01b0385169086907f63502af7324ff6db91ab38f8236a648727d9385ea6c782073dd4882d8a61a48f90600090a450505050565b60006002610675813361069b565b6106915760405162461bcd60e51b81526004016104649061124b565b6103e88484610e39565b600082815260056020526040812060018082015460ff1660028111156106c3576106c3611235565b036106e45760028101546001600160a01b038481169116145b9150506103ee565b6002600182015460ff1660028111156106ff576106ff611235565b03610727576001600160a01b038316600090815260038201602052604090205460ff166106dc565b60405162461bcd60e51b815260206004820152600e60248201526d125b9d985b1a59081c9bdb19525960921b6044820152606401610464565b606060048054610357906111e0565b61058e60015b82610591565b600033816107898286610a02565b9050838110156107e95760405162461bcd60e51b815260206004820152602560248201527f45524332303a2064656372656173656420616c6c6f77616e63652062656c6f77604482015264207a65726f60d81b6064820152608401610464565b61040d8286868403610a37565b6000336103e8818585610bd6565b80600260008281526005602052604090206001015460ff16600281111561082d5761082d611235565b1461084a5760405162461bcd60e51b81526004016104649061128d565b81610855813361069b565b6108715760405162461bcd60e51b81526004016104649061124b565b600083815260056020526040902061088c9060030133610f63565b6040513390819085907feb3e33034c392e69263b04ec0fa376dc12784a41b6676c7f31b936cbc0fbb5af90600090a4505050565b600081600160008281526005602052604090206001015460ff1660028111156108eb576108eb611235565b146109085760405162461bcd60e51b81526004016104649061131d565b6000838152600560205260409020600201546001600160a01b031691505b50919050565b81600160008281526005602052604090206001015460ff16600281111561095557610955611235565b146109725760405162461bcd60e51b81526004016104649061131d565b600083815260056020526040902054839061098d903361069b565b6109a95760405162461bcd60e51b8152600401610464906112d9565b60008481526005602052604090206109c49060020184611000565b60405133906001600160a01b0385169086907f3b855c56b409b671c7112789d022675eb639d0bcb8896f1b6197c132f799e74690600090a450505050565b6001600160a01b03918216600090815260016020908152604080832093909416825291909152205490565b61058e6002610775565b6001600160a01b038316610a995760405162461bcd60e51b8152602060048201526024808201527f45524332303a20617070726f76652066726f6d20746865207a65726f206164646044820152637265737360e01b6064820152608401610464565b6001600160a01b038216610afa5760405162461bcd60e51b815260206004820152602260248201527f45524332303a20617070726f766520746f20746865207a65726f206164647265604482015261737360f01b6064820152608401610464565b6001600160a01b0383811660008181526001602090815260408083209487168084529482529182902085905590518481527f8c5be1e5ebec7d5bd14f71427d1e84f3dd0314c0f7b2291e5b200ac8c7c3b92591015b60405180910390a3505050565b6000610b688484610a02565b90506000198114610bd05781811015610bc35760405162461bcd60e51b815260206004820152601d60248201527f45524332303a20696e73756666696369656e7420616c6c6f77616e63650000006044820152606401610464565b610bd08484848403610a37565b50505050565b6001600160a01b038316610c3a5760405162461bcd60e51b815260206004820152602560248201527f45524332303a207472616e736665722066726f6d20746865207a65726f206164604482015264647265737360d81b6064820152608401610464565b6001600160a01b038216610c9c5760405162461bcd60e51b815260206004820152602360248201527f45524332303a207472616e7366657220746f20746865207a65726f206164647260448201526265737360e81b6064820152608401610464565b6001600160a01b03831660009081526020819052604090205481811015610d145760405162461bcd60e51b815260206004820152602660248201527f45524332303a207472616e7366657220616d6f756e7420657863656564732062604482015265616c616e636560d01b6064820152608401610464565b6001600160a01b03848116600081815260208181526040808320878703905593871680835291849020805487019055925185815290927fddf252ad1be2c89b69c2b068fc378daa952ba7f163c4a11628f55a4df523b3ef910160405180910390a3610bd0565b6001600160a01b038216610dd05760405162461bcd60e51b815260206004820152601f60248201527f45524332303a206d696e7420746f20746865207a65726f2061646472657373006044820152606401610464565b8060026000828254610de29190611214565b90915550506001600160a01b038216600081815260208181526040808320805486019055518481527fddf252ad1be2c89b69c2b068fc378daa952ba7f163c4a11628f55a4df523b3ef910160405180910390a35050565b6001600160a01b038216610e995760405162461bcd60e51b815260206004820152602160248201527f45524332303a206275726e2066726f6d20746865207a65726f206164647265736044820152607360f81b6064820152608401610464565b6001600160a01b03821660009081526020819052604090205481811015610f0d5760405162461bcd60e51b815260206004820152602260248201527f45524332303a206275726e20616d6f756e7420657863656564732062616c616e604482015261636560f01b6064820152608401610464565b6001600160a01b0383166000818152602081815260408083208686039055600280548790039055518581529192917fddf252ad1be2c89b69c2b068fc378daa952ba7f163c4a11628f55a4df523b3ef9101610b4f565b6001600160a01b0316600090815260209190915260409020805460ff19169055565b6001600160a01b038116610fdb5760405162461bcd60e51b815260206004820152601f60248201527f43616e6e6f74206164642030783020746f20612073686172656420726f6c65006044820152606401610464565b6001600160a01b0316600090815260209190915260409020805460ff19166001179055565b6001600160a01b0381166110625760405162461bcd60e51b815260206004820152602360248201527f43616e6e6f742073657420616e206578636c757369766520726f6c6520746f2060448201526203078360ec1b6064820152608401610464565b81546001600160a01b0319166001600160a01b0391909116179055565b600060208083528351808285015260005b818110156110ac57858101830151858201604001528201611090565b506000604082860101526040601f19601f8301168501019250505092915050565b80356001600160a01b03811681146110e457600080fd5b919050565b600080604083850312156110fc57600080fd5b611105836110cd565b946020939093013593505050565b60008060006060848603121561112857600080fd5b611131846110cd565b925061113f602085016110cd565b9150604084013590509250925092565b60006020828403121561116157600080fd5b5035919050565b6000806040838503121561117b57600080fd5b8235915061118b602084016110cd565b90509250929050565b6000602082840312156111a657600080fd5b6111af826110cd565b9392505050565b600080604083850312156111c957600080fd5b6111d2836110cd565b915061118b602084016110cd565b600181811c908216806111f457607f821691505b60208210810361092657634e487b7160e01b600052602260045260246000fd5b808201808211156103ee57634e487b7160e01b600052601160045260246000fd5b634e487b7160e01b600052602160045260246000fd5b60208082526022908201527f53656e64657220646f6573206e6f7420686f6c6420726571756972656420726f6040820152616c6560f01b606082015260800190565b6020808252602c908201527f4d7573742062652063616c6c6564206f6e20616e20696e697469616c697a656460408201526b2053686172656420726f6c6560a01b606082015260800190565b60208082526024908201527f43616e206f6e6c792062652063616c6c6564206279206120726f6c65206d616e60408201526330b3b2b960e11b606082015260800190565b6020808252602f908201527f4d7573742062652063616c6c6564206f6e20616e20696e697469616c697a656460408201526e204578636c757369766520726f6c6560881b60608201526080019056fea26469706673582212208ede6e0544d26f84502979d1f24a8e1e25c01da661f55cf6a8e2be8f11f2e81664736f6c63430008140033417474656d7074656420746f2075736520616e20696e76616c696420726f6c65a26469706673582212209aeea7724dbc29bbab0fd6e8daddbccf47022f47936fc45cbc1e225c469d32c964736f6c63430008140033",
  "linkReferences": {},
  "deployedLinkReferences": {}
}